S00D000074657374312E7372656326
S11300000C9434000C9451000C9451000C94510045
S11300100C9451000C9451000C9451000C94510018
S11300200C9451000C9451000C9451000C94510008
S11300300C9451000C9451000C9451000C945100F8
S11300400C9451000C9451000C9451000C945100E8
S11300500C9451000C9451000C9451000C945100D8
S11300600C9451000C94510011241FBECFEFD8E022
S1130070DEBFCDBF11E0A0E0B1E0E6E5F4E002C0F0
S113008005900D92A031B107D9F721E0A0E1B1E0CC
S113009001C01D92A231B207E1F70E940E020C9436
S11300A029020C94000082E68093B80084E08093D7
S11300B0BC001092B900089584EA8093BC0080913A
S11300C0BC008823E4F708958093BB0084E8809300
S11300D0BC008091BC008823E4F7089540E050E020
S11300E00AC02F5F3F4F02C020E030E029373105BE
S11300F0C4F34F5F5F4F84179507B4F70895EBEB94
S1130100F0E080818260808384E88093BC008091E9
S1130110BC008823E4F781E090E00E946E00EBEBE2
S1130120F0E080818D7F808384E88093BC0080919F
S1130130BC008823E4F70895EBEBF0E090819E7F08
S1130140908394E89093BC009091BC009923E4F7C9
S1130150EBEBF0E090819F70908394E89093BC0067
S11301609091BC009923E4F7EBEBF0E09081807F61
S1130170892B808384E88093BC008091BC00882311
S1130180E4F70E947F000895CF93C82FEBEBF0E0D3
S113019080818E7F808384E88093BC008091BC0042
S11301A08823E4F7EBEBF0E080818F70808384E8B0
S11301B08093BC008091BC008823E4F7EBEBF0E073
S11301C080819C2F907F892B808384E88093BC005E
S11301D08091BC008823E4F70E947F00EBEBF0E001
S11301E080818F70808384E88093BC008091BC0000
S11301F08823E4F7EBEBF0E0208130E1C39FC001FA
S11302001124822B808384E88093BC008091BC00FD
S11302108823E4F70E947F00CF91089580E30E9431
S11302209C0080E30E949C0080E20E949C0088E283
S11302300E94C4008CE00E94C40081E00E94C400BB
S113024086E00E94C40080E80E94C4000895CF9311
S1130250C82FEBEBF0E080818160808384E8809399
S1130260BC008091BC008823E4F7EBEBF0E08081D4
S11302708F70808384E88093BC008091BC008823C5
S1130280E4F7EBEBF0E080819C2F907F892B808357
S113029084E88093BC008091BC008823E4F70E942A
S11302A07F00EBEBF0E080818F70808384E88093A3
S11302B0BC008091BC008823E4F7EBEBF0E02081E4
S11302C030E1C39FC0011124822B808384E8809392
S11302D0BC008091BC008823E4F70E947F00CF918A
S11302E00895CF93DF93EC0103C021960E94270168
S11302F088818111FACFDF91CF91089580EF8AB977
S11303008FEF8BB98BB18F708BB9000089B18F706F
S1130310809310018F30B1F78FE39CE90197F1F7D7
S113032000C0000089B18F70809310018F30A1F359
S11303309FEF29EF80E0915020408040E1F700C01A
S1130340000089B18F70809310018F3029F38FEEF4
S11303508BB9000089B18F70809310018F3019F030
S11303601092110127C08FED8BB9000089B18F70F5
S1130370809310018F3021F081E0809311011AC025
S11303808FEB8BB9000089B18F70809310018F308F
S113039021F082E0809311010DC08FE78BB900003A
S11303A089B18F70809310018F3009F4A7CF83E057
S11303B080931101809110018E3059F4E091110164
S11303C0F0E0EE0FFF1FEE0FFF1FE050FF4F8081A4
S11303D008958D3059F4E0911101F0E0EE0FFF1F04
S11303E0EE0FFF1FE050FF4F818108958B3059F4C9
S11303F0E0911101F0E0EE0FFF1FEE0FFF1FE05040
S1130400FF4F82810895E0911101F0E0EE0FFF1F8C
S1130410EE0FFF1FE050FF4F838108950E945300A9
S11304200E945C0080E70E9464000E940E0180E844
S11304300E94C4000E947E0190E00E9471012FEF8F
S113044083ED90E3215080409040E1F700C000002C
S1090450EECFF894FFCF8B
S11304563738392F3435362A3132332D20303D2B77
S9030000FC
