:100000000C9434000C9451000C9451000C94510049
:100010000C9451000C9451000C9451000C9451001C
:100020000C9451000C9451000C9451000C9451000C
:100030000C9451000C9451000C9451000C945100FC
:100040000C9451000C9451000C9451000C945100EC
:100050000C9451000C9451000C9451000C945100DC
:100060000C9451000C94510011241FBECFEFD8E026
:10007000DEBFCDBF11E0A0E0B1E0ECE7FAE002C0E6
:1000800005900D92AA3AB107D9F721E0AAEAB1E0AA
:1000900001C01D92A93BB207E1F70E944E030C94E8
:1000A0003C050C94000082E68093B80084E08093C5
:1000B000BC001092B900089584EA8093BC0080913E
:1000C000BC008823E4F708958093BB0084E8809304
:1000D000BC008091BC008823E4F7089540E050E024
:1000E0000AC02F5F3F4F02C020E030E029373105C2
:1000F000C4F34F5F5F4F84179507B4F70895EBEB98
:10010000F0E080818260808384E88093BC008091ED
:10011000BC008823E4F781E090E00E946E00EBEBE6
:10012000F0E080818D7F808384E88093BC008091A3
:10013000BC008823E4F70895EBEBF0E090819E7F0C
:10014000908394E89093BC009091BC009923E4F7CD
:10015000EBEBF0E090819F70908394E89093BC006B
:100160009091BC009923E4F7EBEBF0E09081807F65
:10017000892B808384E88093BC008091BC00882315
:10018000E4F70E947F000895CF93C82FEBEBF0E0D7
:1001900080818E7F808384E88093BC008091BC0046
:1001A0008823E4F7EBEBF0E080818F70808384E8B4
:1001B0008093BC008091BC008823E4F7EBEBF0E077
:1001C00080819C2F907F892B808384E88093BC0062
:1001D0008091BC008823E4F70E947F00EBEBF0E005
:1001E00080818F70808384E88093BC008091BC0004
:1001F0008823E4F7EBEBF0E0208130E1C39FC001FE
:100200001124822B808384E88093BC008091BC0001
:100210008823E4F70E947F00CF91089580E30E9435
:100220009C0080E30E949C0080E20E949C0088E287
:100230000E94C4008CE00E94C40081E00E94C400BF
:1002400086E00E94C40080E80E94C4000895CF9315
:10025000C82FEBEBF0E080818160808384E880939D
:10026000BC008091BC008823E4F7EBEBF0E08081D8
:100270008F70808384E88093BC008091BC008823C9
:10028000E4F7EBEBF0E080819C2F907F892B80835B
:1002900084E88093BC008091BC008823E4F70E942E
:1002A0007F00EBEBF0E080818F70808384E88093A7
:1002B000BC008091BC008823E4F7EBEBF0E02081E8
:1002C00030E1C39FC0011124822B808384E8809396
:1002D000BC008091BC008823E4F70E947F00CF918E
:1002E0000895CF93DF93EC0103C021960E9427016C
:1002F00088818111FACFDF91CF91089580EF84B981
:100300008FEF85B985B18F7085B9000083B18F708B
:100310008093AF018F30B1F72FEF89EF90E021503C
:1003200080409040E1F700C0000083B18F7080935F
:10033000AF018F3089F32FEF83EF91E021508040A0
:100340009040E1F700C0000083B18F708093AF014F
:100350008F3011F38FEE85B9000083B18F708093D9
:10036000AF018F3019F01092B20127C08FED85B91F
:10037000000083B18F708093AF018F3021F081E056
:100380008093B2011AC08FEB85B9000083B18F70E2
:100390008093AF018F3021F082E08093B2010DC0D5
:1003A0008FE785B9000083B18F708093AF018F30E4
:1003B00009F4A4CF83E08093B2018091AF018E3025
:1003C00059F4E091B201F0E0EE0FFF1FEE0FFF1FB6
:1003D000EF5FFE4F808108958D3059F4E091B201B6
:1003E000F0E0EE0FFF1FEE0FFF1FEF5FFE4F81816A
:1003F00008958B3059F4E091B201F0E0EE0FFF1F49
:10040000EE0FFF1FEF5FFE4F82810895E091B20172
:10041000F0E0EE0FFF1FEE0FFF1FEF5FFE4F838137
:10042000089583E480937C0086E880937A000895A1
:100430008770ECE7F0E09081987F892B8083EAE772
:10044000F0E080818064808380917A0086FDFCCF1B
:1004500080917800909179000895EF92FF920F9328
:100460001F93CF93DF9300D000D0CDB7DEB7E12C40
:10047000F12C17C00E947E01182F882391F089EC7F
:100480008E0D0E94C400812F90E09A8389831C8284
:100490001B82CE0101960E947101010F8FEFE81AB5
:1004A000F80A83E0E816F1042CF3802F0F900F90E8
:1004B0000F900F90DF91CF911F910F91FF90EF90D0
:1004C0000895EF92FF920F931F93CF93DF937C01D8
:1004D0008B010E940E0180E80E94C400C7010E94A7
:1004E000710187E80E94C400C8010E94710180EC7C
:1004F0000E94C40081E191E00E94710189EC0E9498
:10050000C40089E191E00E9471010E942D02C82F70
:10051000D0E0209751F40EC08C2F9D2F0BC08D3250
:1005200021F4B801C7010E9461020E947E018B3252
:10053000B1F7F2CFDF91CF911F910F91FF90EF9024
:10054000089587B1887F87B908958334F9F084349A
:10055000B9F1823409F04EC04130510559F424B14B
:1005600081E090E002C0880F991F6A95E2F7822B24
:1005700084B9089524B181E090E002C0880F991FEA
:100580006A95E2F78095822384B908954130510538
:1005900059F427B181E090E002C0880F991F6A9555
:1005A000E2F7822B87B9089527B181E090E002C07D
:1005B000880F991F6A95E2F78095822387B908957D
:1005C0004130510559F42AB181E090E002C0880F12
:1005D000991F6A95E2F7822B8AB908952AB181E0C2
:1005E00090E002C0880F991F6A95E2F780958223F8
:1005F0008AB908958FEF84B985B90895CF939C0186
:10060000C62F95B5936095BDE1EBF0E090819360C6
:10061000908321303105B9F01CF4232B41F03CC00C
:1006200022303105E1F02330310541F135C084B588
:10063000836884BD41E050E066E070E084E40E949D
:10064000A502C7BD29C084B5836284BD41E050E0E6
:1006500065E070E084E40E94A502C8BD1DC0E0EB27
:10066000F0E080818368808341E050E063E070E0E7
:1006700082E40E94A502C093B3000EC0E0EBF0E05C
:1006800080818362808341E050E063E070E084E435
:100690000E94A502C093B400CF910895CF93DF9339
:1006A000CDB7DEB7E3970FB6F894DEBF0FBECDBF70
:1006B0000E9453000E945C0080E70E9464000E9438
:1006C0000E0180E80E94C40081E291E00E94710165
:1006D00088E80E94C40088E291E00E94710185ECE4
:1006E0000E94C4008FE291E00E94710187E087B907
:1006F0000E9411020E947E01182F813309F05DC013
:100700000E94A10266E371E089E391E00E94610228
:100710009093B4018093B301892B09F44EC06FE329
:1007200071E089E391E00E9461028093B501882322
:1007300009F443C062E471E089E391E00E94610240
:100740008093AA018823C9F166E371E085E491E012
:100750000E9461028093B601882379F16FE371E012
:1007600085E491E00E9461028093B701882329F11A
:1007700062E471E085E491E00E9461028093B80137
:100780008823D9F00E940E0182E80E94C4008BE405
:1007900091E00E94710186EC0E94C40087E591E01F
:1007A0000E9471012FEF83ED90E321508040904033
:1007B000E1F700C000000E944E03123309F094C01C
:1007C00088B111E0812788B92FEF89E698E121509F
:1007D00080409040E1F700C00000809100010E943D
:1007E00018029093B1018093B00188B1182718B90D
:1007F00088B112E0812788B92FEF89E698E121506E
:1008000080409040E1F700C00000809100010E940C
:1008100018029093AC018093AB0188B1182718B9E6
:1008200088B114E0812788B92FEF89E698E121503B
:1008300080409040E1F700C00000809100010E94DC
:1008400018029093AE018093AD0188B1182718B9B2
:1008500080E80E94C4004AE050E0BE016D5D7F4F19
:100860008091B0019091B1010E9407058DE591E062
:100870000E94710183E80E94C400CE0183960E9409
:1008800071014AE050E0BE016E5E7F4F8091AB0186
:100890009091AC010E94070588E80E94C40080E6A0
:1008A00091E00E9471018BE80E94C400CE01429643
:1008B0000E9471014AE050E0BE016F5F7F4F80915E
:1008C000AD019091AE010E94070586EC0E94C40024
:1008D00083E691E00E9471018AEC0E94C400CE017F
:1008E00001960E9471016CCF133309F003CF0E946F
:1008F0000E0181E80E94C40086E691E00E94710129
:100900002FEF83ED90E3215080409040E1F700C04D
:1009100000000E940E0181E80E94C40086E791E079
:100920000E9471010E942D0290E00E94E1046C017E
:100930002FEF83ED90E3215080409040E1F700C01D
:1009400000000E940E0181E80E94C40086E891E048
:100950000E9471010E942D0290E00E94E1047C013E
:100960002FEF83ED90E3215080409040E1F700C0ED
:1009700000000E940E0181E80E94C40088E991E015
:100980000E9471010E942D0290E00E94E1048C01FE
:10099000B60180E090E00E94FE02B70181E090E0A5
:1009A0000E94FE02B80183E090E00E94FE022FEF59
:1009B00083ED90E3215080409040E1F700C00000BB
:1009C00099CEFC0188279927E89421912032E9F3F8
:1009D000293010F02E30C8F32B3241F02D3239F48B
:1009E000689404C00E94FF04820F911D219120533E
:1009F0002A30C0F31EF4909581959F4F08957AE0B8
:100A0000979F902D879F802D910D11240895453239
:100A1000510520F4423010F00C941205FB011082B5
:100A2000CB010895BB27FB015527AA27880F991FE3
:100A3000AA1FA41710F0A41B83955051B9F7A05D0D
:100A4000AA3308F0A95DA193009779F7B111B1938A
:100A50001192CB010C942C05DC01FC01672F7191E4
:100A60007723E1F7329704C07C916D937083629194
:0C0A7000AE17BF07C8F30895F894FFCF3D
:100A7C000320303D2B3132332D3435362A3738397B
:100A8C002F2A2D636C65617200456E7465722D237F
:100A9C00006D6F64652031006D6F64652032006DF0
:100AAC006F6465203300522D00426C61636B00470C
:100ABC002D00422D0057686974650043616C6962B2
:100ACC00726174696F6E00446F6E652100523A005A
:100ADC00473A00423A006D6F646520332073656CB1
:100AEC00656374656400456E7465722052454420DC
:100AFC0076616C756500456E74657220475245458C
:100B0C004E2076616C756500456E74657220424CA2
:0A0B1C0055452076616C75650000F8
:00000001FF
