S01400005247422069496768742075702E737265631B
S11300000C9434000C943E000C943E000C943E007E
S11300100C943E000C943E000C943E000C943E0064
S11300200C943E000C943E000C943E000C943E0054
S11300300C943E000C943E000C943E000C943E0044
S11300400C943E000C943E000C943E000C943E0034
S11300500C943E000C943E000C943E000C943E0024
S11300600C943E000C943E0011241FBECFEFD8E048
S1130070DEBFCDBF0E94E9000C9405010C94000082
S11300808334F9F08434B9F1823409F04EC041303C
S1130090510559F424B181E090E002C0880F991F02
S11300A06A95E2F7822B84B9089524B181E090E047
S11300B002C0880F991F6A95E2F78095822384B95C
S11300C008954130510559F427B181E090E002C010
S11300D0880F991F6A95E2F7822B87B9089527B193
S11300E081E090E002C0880F991F6A95E2F780953D
S11300F0822387B908954130510559F42AB181E02A
S113010090E002C0880F991F6A95E2F7822B8AB9A2
S113011008952AB181E090E002C0880F991F6A9582
S1130120E2F7809582238AB908958FEF84B985B95F
S11301300895CF939C01C62F95B5936095BDE1EBCF
S1130140F0E090819360908321303105B9F01CF484
S1130150232B41F03CC022303105E1F0233031053E
S113016041F135C084B5836884BD41E050E066E068
S113017070E084E40E944000C7BD29C084B5836256
S113018084BD41E050E065E070E084E40E944000FA
S1130190C8BD1DC0E0EBF0E080818368808341E04E
S11301A050E063E070E082E40E944000C093B3003A
S11301B00EC0E0EBF0E080818362808341E050E098
S11301C063E070E084E40E944000C093B400CF91E7
S11301D0089568E770E080E090E00E94990062E38F
S11301E070E081E090E00E9499006FEF70E083E09E
S11301F090E00E9499002FEF83ED90E3215080401E
S11102009040E1F700C00000E4CFF894FFCF77
S9030000FC
