:100000000C9434000C9451000C9451000C94510049
:100010000C9451000C9451000C9451000C9451001C
:100020000C9451000C9451000C9451000C9451000C
:100030000C9451000C9451000C9451000C945100FC
:100040000C9451000C9451000C9451000C945100EC
:100050000C9451000C9451000C9451000C945100DC
:100060000C9451000C94510011241FBECFEFD8E026
:10007000DEBFCDBF11E0A0E0B1E0E0E0F5E002C0FE
:1000800005900D92AA30B107D9F721E0AAE0B1E0BE
:1000900001C01D92A031B207E1F70E949A010C94B1
:1000A0007E020C94000082E68093B80084E0809386
:1000B000BC001092B900089584EA8093BC0080913E
:1000C000BC008823E4F708958093BB0084E8809304
:1000D000BC008091BC008823E4F7089540E050E024
:1000E0000AC02F5F3F4F02C020E030E029373105C2
:1000F000C4F34F5F5F4F84179507B4F70895EBEB98
:10010000F0E080818260808384E88093BC008091ED
:10011000BC008823E4F781E090E00E946E00EBEBE6
:10012000F0E080818D7F808384E88093BC008091A3
:10013000BC008823E4F70895EBEBF0E090819E7F0C
:10014000908394E89093BC009091BC009923E4F7CD
:10015000EBEBF0E090819F70908394E89093BC006B
:100160009091BC009923E4F7EBEBF0E09081807F65
:10017000892B808384E88093BC008091BC00882315
:10018000E4F70E947F000895CF93C82FEBEBF0E0D7
:1001900080818E7F808384E88093BC008091BC0046
:1001A0008823E4F7EBEBF0E080818F70808384E8B4
:1001B0008093BC008091BC008823E4F7EBEBF0E077
:1001C00080819C2F907F892B808384E88093BC0062
:1001D0008091BC008823E4F70E947F00EBEBF0E005
:1001E00080818F70808384E88093BC008091BC0004
:1001F0008823E4F7EBEBF0E0208130E1C39FC001FE
:100200001124822B808384E88093BC008091BC0001
:100210008823E4F70E947F00CF91089580E30E9435
:100220009C0080E30E949C0080E20E949C0088E287
:100230000E94C4008CE00E94C40081E00E94C400BF
:1002400086E00E94C40080E80E94C4000895CF9315
:10025000C82FEBEBF0E080818160808384E880939D
:10026000BC008091BC008823E4F7EBEBF0E08081D8
:100270008F70808384E88093BC008091BC008823C9
:10028000E4F7EBEBF0E080819C2F907F892B80835B
:1002900084E88093BC008091BC008823E4F70E942E
:1002A0007F00EBEBF0E080818F70808384E88093A7
:1002B000BC008091BC008823E4F7EBEBF0E02081E8
:1002C00030E1C39FC0011124822B808384E8809396
:1002D000BC008091BC008823E4F70E947F00CF918E
:1002E0000895CF93DF93EC0103C021960E9427016C
:1002F00088818111FACFDF91CF91089583E48093B3
:100300007C0086E880937A0008958770ECE7F0E03F
:100310009081987F892B8083EAE7F0E08081806478
:10032000808380917A0086FDFCCF80917800909147
:1003300079000895CF93DF93CDB7DEB7E3970FB67B
:10034000F894DEBF0FBECDBF0E9453000E945C0038
:1003500080E70E9464000E940E0187E084B90E9439
:100360007E0185B111E0812785B92FEF84E39CE000
:10037000215080409040E1F700C0000080910001D2
:100380000E94850190930F0180930E0185B118277B
:1003900015B985B112E0812785B92FEF84E39CE080
:1003A000215080409040E1F700C0000080910001A2
:1003B0000E94850190930B0180930A0185B1182753
:1003C00015B985B114E0812785B92FEF84E39CE04E
:1003D000215080409040E1F700C000008091000172
:1003E0000E94850190930D0180930C0185B118271F
:1003F00015B995B188E0892785B980E80E94C400C5
:100400004AE050E0BE016D5D7F4F80910E019091FA
:100410000F010E94490281E091E00E94710183E88E
:100420000E94C400CE0183960E9471014AE050E010
:10043000BE016E5E7F4F80910A0190910B010E9478
:10044000490288E80E94C40084E091E00E947101A2
:100450008BE80E94C400CE0142960E9471014AE0DE
:1004600050E0BE016F5F7F4F80910C0190910D01B4
:100470000E94490286EC0E94C40087E091E00E943D
:1004800071018AEC0E94C400CE0101960E947101A4
:1004900068CF4532510520F4423010F00C945402DC
:1004A000FB011082CB010895BB27FB015527AA272A
:1004B000880F991FAA1FA41710F0A41B83955051F1
:1004C000B9F7A05DAA3308F0A95DA193009779F769
:1004D000B111B1931192CB010C946E02DC01FC01BD
:1004E000672F71917723E1F7329704C07C916D9368
:1004F00070836291AE17BF07C8F30895F894FFCFD9
:0A05000003523A00473A00423A0065
:00000001FF
