S01200005247422073656E736F722E737265637D
S11300000C9434000C9451000C9451000C94510045
S11300100C9451000C9451000C9451000C94510018
S11300200C9451000C9451000C9451000C94510008
S11300300C9451000C9451000C9451000C945100F8
S11300400C9451000C9451000C9451000C945100E8
S11300500C9451000C9451000C9451000C945100D8
S11300600C9451000C94510011241FBECFEFD8E022
S1130070DEBFCDBF11E0A0E0B1E0E8E1FAE002C0EC
S113008005900D92A03AB107D9F721E0A0EAB1E0BA
S113009001C01D92AF3AB207E1F70E942F030C94FE
S11300A00A050C94000082E68093B80084E08093F3
S11300B0BC001092B900089584EA8093BC0080913A
S11300C0BC008823E4F708958093BB0084E8809300
S11300D0BC008091BC008823E4F7089540E050E020
S11300E00AC02F5F3F4F02C020E030E029373105BE
S11300F0C4F34F5F5F4F84179507B4F70895EBEB94
S1130100F0E080818260808384E88093BC008091E9
S1130110BC008823E4F781E090E00E946E00EBEBE2
S1130120F0E080818D7F808384E88093BC0080919F
S1130130BC008823E4F70895EBEBF0E090819E7F08
S1130140908394E89093BC009091BC009923E4F7C9
S1130150EBEBF0E090819F70908394E89093BC0067
S11301609091BC009923E4F7EBEBF0E09081807F61
S1130170892B808384E88093BC008091BC00882311
S1130180E4F70E947F000895CF93C82FEBEBF0E0D3
S113019080818E7F808384E88093BC008091BC0042
S11301A08823E4F7EBEBF0E080818F70808384E8B0
S11301B08093BC008091BC008823E4F7EBEBF0E073
S11301C080819C2F907F892B808384E88093BC005E
S11301D08091BC008823E4F70E947F00EBEBF0E001
S11301E080818F70808384E88093BC008091BC0000
S11301F08823E4F7EBEBF0E0208130E1C39FC001FA
S11302001124822B808384E88093BC008091BC00FD
S11302108823E4F70E947F00CF91089580E30E9431
S11302209C0080E30E949C0080E20E949C0088E283
S11302300E94C4008CE00E94C40081E00E94C400BB
S113024086E00E94C40080E80E94C4000895CF9311
S1130250C82FEBEBF0E080818160808384E8809399
S1130260BC008091BC008823E4F7EBEBF0E08081D4
S11302708F70808384E88093BC008091BC008823C5
S1130280E4F7EBEBF0E080819C2F907F892B808357
S113029084E88093BC008091BC008823E4F70E942A
S11302A07F00EBEBF0E080818F70808384E88093A3
S11302B0BC008091BC008823E4F7EBEBF0E02081E4
S11302C030E1C39FC0011124822B808384E8809392
S11302D0BC008091BC008823E4F70E947F00CF918A
S11302E00895CF93DF93EC0103C021960E94270168
S11302F088818111FACFDF91CF91089580EF84B97D
S11303008FEF85B985B18F7085B9000083B18F7087
S11303108093A5018F30B1F72FEF89EF90E0215042
S113032080409040E1F700C0000083B18F7080935B
S1130330A5018F3089F32FEF83EF91E021508040A6
S11303409040E1F700C0000083B18F708093A50155
S11303508F3011F38FEE85B9000083B18F708093D5
S1130360A5018F3019F01092A80127C08FED85B92F
S1130370000083B18F708093A5018F3021F081E05C
S11303808093A8011AC08FEB85B9000083B18F70E8
S11303908093A5018F3021F082E08093A8010DC0E5
S11303A08FE785B9000083B18F708093A5018F30EA
S11303B009F4A4CF83E08093A8018091A5018E3035
S11303C059F4E091A801F0E0EE0FFF1FEE0FFF1FBC
S11303D0EF5FFE4F808108958D3059F4E091A801BC
S11303E0F0E0EE0FFF1FEE0FFF1FEF5FFE4F818166
S11303F008958B3059F4E091A801F0E0EE0FFF1F4F
S1130400EE0FFF1FEF5FFE4F82810895E091A80178
S1130410F0E0EE0FFF1FEE0FFF1FEF5FFE4F838133
S1130420089583E480937C0086E880937A0008959D
S11304308770ECE7F0E09081987F892B8083EAE76E
S1130440F0E080818064808380917A0086FDFCCF17
S1130450809178009091790008959C0181E090E06A
S11304600AC0AC01429FC001439F900D529F900D62
S1130470112461507109161617069CF30895CF9242
S1130480DF92EF92FF920F931F93CF93DF9300D0ED
S113049000D0CDB7DEB7E12CF12C17C00E947E014D
S11304A0082F882391F089EC8E0D0E94C40010E07F
S11304B01A8309831C821B82CE0101960E9471015A
S11304C0C00ED11E8FEFE81AF80A83E0E816F10493
S11304D02CF3C6010F900F900F900F90DF91CF91E6
S11304E01F910F91FF90EF90DF90CF900895AF92FE
S11304F0BF92CF92DF92EF92FF920F931F93CF930D
S1130500DF9300D0CDB7DEB7C12CD12C00E010E0D2
S113051026C00E947E01E82EF12C570120E3A21A86
S1130520B10889EC800F0E94C400FA82E982CE01EE
S113053001960E94710162E070E0601B710B8AE019
S113054090E00E942D029C01A29EC001A39E900DEA
S1130550B29E900D1124C80ED91E0F5F1F4F033099
S11305601105BCF2C6010F900F90DF91CF911F913E
S11305700F91FF90EF90DF90CF90BF90AF900895D0
S1130580EF92FF920F931F93CF93DF937C018B0124
S11305900E940E0180EC0E94C400C7010E947101F8
S11305A087EC0E94C400C8010E94710180E80E9487
S11305B0C40081E191E00E94710189E80E94C400B5
S11305C089E191E00E9471010E943F02EC01892BB4
S11305D051F40EC08C2F9D2F0BC08D3221F4B80125
S11305E0C7010E94C0020E947E018B32B1F7F2CF94
S11305F0DF91CF911F910F91FF90EF90089587B1F4
S1130600887F87B908959C0195B5936095BDE1EB0A
S1130610F0E09081936090832130310569F02230BD
S1130620310591F0232BD1F484B5836884BD8AB15C
S113063080648AB967BD089584B5836284BD8AB134
S113064080628AB968BD0895E0EBF0E0808183623E
S113065080838AB188608AB96093B4000895CF9387
S1130660DF93CDB7DEB7E3970FB6F894DEBF0FBEC6
S1130670CDBF0E9453000E945C0080E70E9464008A
S11306800E940E0180E80E94C40081E291E00E9471
S1130690710188E80E94C40088E291E00E9471011F
S11306A085EC0E94C4008FE291E00E94710187E012
S11306B087B90E9411020E947E01182F813309F02C
S11306C05DC00E94FF0266E371E089E391E00E944D
S11306D0C0029093AA018093A901892B09F44EC00A
S11306E06DE371E089E391E00E94C0028093AB0165
S11306F0882309F443C060E471E089E391E00E9437
S1130700C0028093A0018823C9F166E371E083E409
S113071091E00E94C0028093AC01882379F16DE3DB
S113072071E083E491E00E94C0028093AD018823CC
S113073029F160E471E083E491E00E94C0028093B7
S1130740AE018823D9F00E940E0182E80E94C40001
S113075087E491E00E94710186EC0E94C40083E565
S113076091E00E9471012FEF83ED90E321508040CE
S11307709040E1F700C000000E942F03123309F0FB
S113078096C00E940E0188B111E0812788B92FEF2D
S113079089E698E1215080409040E1F700C00000D4
S11307A0809100010E9418029093A7018093A601F2
S11307B088B1182718B988B112E0812788B92FEFBA
S11307C089E698E1215080409040E1F700C00000A4
S11307D0809100010E9418029093A2018093A101CC
S11307E088B1182718B988B114E0812788B92FEF88
S11307F089E698E1215080409040E1F700C0000074
S1130800809100010E9418029093A4018093A30197
S113081088B1182718B980E80E94C4004AE050E063
S1130820BE016D5D7F4F8091A6019091A7010E944A
S1130830D50489E591E00E94710183E80E94C40017
S1130840CE0183960E9471014AE050E0BE016E5EC3
S11308507F4F8091A1019091A2010E94D50488E864
S11308600E94C4008CE591E00E9471018BE80E9413
S1130870C400CE0142960E9471014AE050E0BE01DC
S11308806F5F7F4F8091A3019091A4010E94D504D2
S113089086EC0E94C4008FE591E00E9471018AEC0D
S11308A00E94C400CE0101960E9471016CCF1333E3
S11308B009F001CF0E940E0180E80E94C40082E684
S11308C091E00E9471012FEF83EC99E02150804068
S11308D09040E1F700C000000E940E0180E80E94F1
S11308E0C40082E791E00E9471010E9477026C01CA
S11308F02FEF81EE94E0215080409040E1F700C05A
S113090000000E940E0180E80E94C40082E891E089
S11309100E94710180EC0E94C4008CE791E00E9467
S113092071010E9477027C012FEF81EE94E0215047
S113093080409040E1F700C000000E940E0180E872
S11309400E94C4008EE891E00E9471010E94770227
S11309508C01B60180E090E00E940303B70181E0BE
S113096090E00E940303B80182E090E00E94030338
S11309702FEF83ED90E3215080409040E1F700C0D9
S1130980000060E070E080E090E00E94030360E01B
S113099070E081E090E00E94030360E070E082E098
S11309A090E00E9403030E942F034532510520F476
S11309B0423010F00C94E004FB011082CB01089546
S11309C0BB27FB015527AA27880F991FAA1FA41725
S11309D010F0A41B83955051B9F7A05DAA3308F019
S11309E0A95DA193009779F7B111B1931192CB014D
S11309F00C94FA04DC01FC01672F71917723E1F771
S1130A00329704C07C916D9370836291AE17BF07D7
S10B0A10C8F30895F894FFCF28
S1130A180320303D2B3132332D3435362A373839DB
S1130A282F2D20636C65617200456E746572202BEE
S1130A38006D6F64652031006D6F64652032006D50
S1130A486F6465203300522D004D696E00472D00F8
S1130A58422D004D61780043616C6962726174696A
S1130A686F6E00446F6E652100523A00473A0042A7
S1130A783A006D6F646520332073656C6563746533
S1130A886400456E746572205245442076616C7525
S1130A986500456E74657220475245454E00456EA3
S1130AA874657220424C55452076616C756500006A
S9030000FC
