:100000000C9434000C9451000C9451000C94510049
:100010000C9451000C9451000C9451000C9451001C
:100020000C9451000C9451000C9451000C9451000C
:100030000C9451000C9451000C9451000C945100FC
:100040000C9451000C9451000C9451000C945100EC
:100050000C9451000C9451000C9451000C945100DC
:100060000C9451000C94510011241FBECFEFD8E026
:10007000DEBFCDBF11E0A0E0B1E0ECE2F5E002C0F0
:1000800005900D92AA30B107D9F721E0AAE0B1E0BE
:1000900001C01D92A231B207E1F70E94AC010C949D
:1000A00094020C94000082E68093B80084E0809370
:1000B000BC001092B900089584EA8093BC00ECEB78
:1000C000F0E080818823ECF708958093BB0084E8FA
:1000D0008093BC00ECEBF0E080818823ECF708957E
:1000E000992354F4089521503109E9F74F5F5F4F88
:1000F000841795071CF4089540E050E029E730E0AC
:10010000F2CFEBEBF0E080818260808384E8809323
:10011000BC00ECEBF0E080818823ECF781E090E01C
:100120000E947000EBEBF0E080818D7F808384E89B
:100130008093BC00ECEBF0E080818823ECF708951D
:10014000EBEBF0E090819E7F908394E89093BC006D
:10015000ECEBF0E090819923ECF7EBEBF0E0908191
:100160009F70908394E89093BC00ECEBF0E090815A
:100170009923ECF7EBEBF0E09081807F892B808373
:1001800084E88093BC00ECEBF0E080818823ECF7FE
:100190000E9481000895CF93C82FEBEBF0E080819F
:1001A0008E7F808384E88093BC00ECEBF0E080815C
:1001B0008823ECF7EBEBF0E080818F70808384E89C
:1001C0008093BC00ECEBF0E080818823ECF7EBEB54
:1001D000F0E080819C2F907F892B808384E880933E
:1001E000BC00ECEBF0E080818823ECF70E948100FA
:1001F000EBEBF0E080818F70808384E88093BC001B
:10020000ECEBF0E080818823ECF7EBEBF0E0208171
:1002100030E1C39FC0011124822B808384E8809346
:10022000BC00ECEBF0E080818823ECF70E948100B9
:10023000CF91089580E30E94A00080E30E94A00077
:1002400080E20E94A00088E20E94CB008CE00E9425
:10025000CB0081E00E94CB0086E00E94CB0080E8CA
:100260000E94CB000895CF93C82FEBEBF0E0808184
:100270008160808384E88093BC00ECEBF0E08081B7
:100280008823ECF7EBEBF0E080818F70808384E8CB
:100290008093BC00ECEBF0E080818823ECF7EBEB83
:1002A000F0E080819C2F907F892B808384E880936D
:1002B000BC00ECEBF0E080818823ECF70E94810029
:1002C000EBEBF0E080818F70808384E88093BC004A
:1002D000ECEBF0E080818823ECF7EBEBF0E02081A1
:1002E00030E1C39FC0011124822B808384E8809376
:1002F000BC00ECEBF0E080818823ECF70E948100E9
:10030000CF910895CF93DF93EC018881882331F05A
:1003100021960E94330189918111FBCFDF91CF910A
:10032000089583E480937C0086E880937A000895A2
:10033000ECE7F0E09081987F8770892B8083EAE773
:10034000F0E0808180648083808186FDFDCF809194
:100350007800909179000895CF93DF93CDB7DEB701
:10036000E3970FB6F894DEBF0FBECDBF0E945300D7
:100370000E945C0080E70E9465000E941A018FEFD6
:1003800084B90E949101FF24F39402E014E083E019
:100390000E949801909311018093100185B18F25DF
:1003A00085B92FEF89E698E1215080409040E1F730
:1003B00000C00000809100010E94980190930F01FD
:1003C00080930E0185B18F2585B985B1802785B9C8
:1003D0002FEF89E698E1215080409040E1F700C07E
:1003E0000000809100010E94980190930B0180937E
:1003F0000A0185B1802785B985B1812785B92FEF9D
:1004000089E698E1215080409040E1F700C000006B
:10041000809100010E94980190930D0180930C013E
:1004200085B1812785B980E80E94CB004AE050E081
:10043000BE016D5D7F4F80910E0190910F010E9472
:100440005F0281E091E00E94820183E80E94CB007C
:10045000CE0183960E9482014AE050E0BE016E5EAA
:100460007F4F80910A0190910B010E945F0288E802
:100470000E94CB0084E091E00E9482018BE80E9400
:10048000CB00CE0142960E9482014AE050E0BE01BC
:100490006F5F7F4F80910C0190910D010E945F0270
:1004A00086EC0E94CB0087E091E00E9482018AECFA
:1004B0000E94CB00CE0101960E94820168CF453296
:1004C000510520F4423010F00C946A02FB011082B6
:1004D000CB010895BB27FB015527AA27880F991F39
:1004E000AA1FA41710F0A41B83955051B9F7A05D63
:1004F000AA3308F0A95DA193009779F7B111B193E0
:100500001192CB010C948402DC01FC01672F7191E4
:100510007723E1F7329704C07C916D9370836291E9
:0C052000AE17BF07C8F30895F894FFCF92
:0A052C0003523A00473A00423A0039
:00000001FF
