S00B00005247422E737265633E
S11300000C9434000C9451000C9451000C94510045
S11300100C9451000C9451000C9451000C94510018
S11300200C9451000C9451000C9451000C94510008
S11300300C9451000C9451000C9451000C945100F8
S11300400C9451000C9451000C9451000C945100E8
S11300500C9451000C9451000C9451000C945100D8
S11300600C9451000C94510011241FBECFEFD8E022
S1130070DEBFCDBF11E0A0E0B1E0ECE5F2E102C0EB
S113008005900D92A03DB107D9F721E0A0EDB1E0B4
S113009001C01D92AB3EB207E1F70E9478040C94B4
S11300A02C090C94000082E68093B80084E08093CD
S11300B0BC001092B900089584EA8093BC0080913A
S11300C0BC008823E4F708958093BB0084E8809300
S11300D0BC008091BC008823E4F7089540E050E020
S11300E00AC02F5F3F4F02C020E030E029373105BE
S11300F0C4F34F5F5F4F84179507B4F70895EBEB94
S1130100F0E080818260808384E88093BC008091E9
S1130110BC008823E4F781E090E00E946E00EBEBE2
S1130120F0E080818D7F808384E88093BC0080919F
S1130130BC008823E4F70895EBEBF0E090819E7F08
S1130140908394E89093BC009091BC009923E4F7C9
S1130150EBEBF0E090819F70908394E89093BC0067
S11301609091BC009923E4F7EBEBF0E09081807F61
S1130170892B808384E88093BC008091BC00882311
S1130180E4F70E947F000895CF93C82FEBEBF0E0D3
S113019080818E7F808384E88093BC008091BC0042
S11301A08823E4F7EBEBF0E080818F70808384E8B0
S11301B08093BC008091BC008823E4F7EBEBF0E073
S11301C080819C2F907F892B808384E88093BC005E
S11301D08091BC008823E4F70E947F00EBEBF0E001
S11301E080818F70808384E88093BC008091BC0000
S11301F08823E4F7EBEBF0E0208130E1C39FC001FA
S11302001124822B808384E88093BC008091BC00FD
S11302108823E4F70E947F00CF91089580E30E9431
S11302209C0080E30E949C0080E20E949C0088E283
S11302300E94C4008CE00E94C40081E00E94C400BB
S113024086E00E94C40080E80E94C4000895CF9311
S1130250C82FEBEBF0E080818160808384E8809399
S1130260BC008091BC008823E4F7EBEBF0E08081D4
S11302708F70808384E88093BC008091BC008823C5
S1130280E4F7EBEBF0E080819C2F907F892B808357
S113029084E88093BC008091BC008823E4F70E942A
S11302A07F00EBEBF0E080818F70808384E88093A3
S11302B0BC008091BC008823E4F7EBEBF0E02081E4
S11302C030E1C39FC0011124822B808384E8809392
S11302D0BC008091BC008823E4F70E947F00CF918A
S11302E00895CF93DF93EC0103C021960E94270168
S11302F088818111FACFDF91CF91089580EF8AB977
S11303008FEF8BB98BB18F708BB9000089B18F706F
S11303108093D9018F30B1F72FEF89EF90E021500E
S113032080409040E1F700C0000089B18F70809355
S1130330D9018F3089F32FEF83EF91E02150804072
S11303409040E1F700C0000089B18F708093D9011B
S11303508F3011F38FEE8BB9000089B18F708093C9
S1130360D9018F3019F01092DE0127C08FED8BB9BF
S1130370000089B18F708093D9018F3021F081E022
S11303808093DE011AC08FEB8BB9000089B18F70A6
S11303908093D9018F3021F082E08093DE010DC07B
S11303A08FE78BB9000089B18F708093D9018F30AA
S11303B009F4A4CF83E08093DE018091D9018E30CB
S11303C059F4E091DE01F0E0EE0FFF1FEE0FFF1F86
S11303D0EF5FFE4F808108958D3059F4E091DE0186
S11303E0F0E0EE0FFF1FEE0FFF1FEF5FFE4F818166
S11303F008958B3059F4E091DE01F0E0EE0FFF1F19
S1130400EE0FFF1FEF5FFE4F82810895E091DE0142
S1130410F0E0EE0FFF1FEE0FFF1FEF5FFE4F838133
S1130420089583E480937C0086E880937A0008959D
S11304308770ECE7F0E09081987F892B8083EAE76E
S1130440F0E080818064808380917A0086FDFCCF17
S113045080917800909179000895CF92DF92EF9285
S1130460FF920F931F93CF93DF9300D000D0CDB7AB
S1130470DEB7E12CF12C17C00E947E01082F8823DF
S113048091F089EC8E0D0E94C40010E01A83098358
S11304901C821B82CE0101960E947101C00ED11EE6
S11304A08FEFE81AF80A83E0E816F1042CF3C6018A
S11304B00F900F900F900F90DF91CF911F910F919C
S11304C0FF90EF90DF90CF900895AF92BF92CF92BC
S11304D0DF92EF92FF920F931F93CF93DF9300D09D
S11304E0CDB7DEB7A12CB12CE12CF12C29C00E9490
S11304F07E01C82ED12C86010053110989EC8E0D82
S11305000E94C400DA82C982CE0101960E94710160
S113051082E0E816F10419F4A00EB11E0EC0C50164
S1130520800F911F5C01AA0CBB1C880F991F880FB8
S1130530991F880F991FA80EB91E8FEFE81AF80AA1
S113054083E0E816F1049CF2C5010F900F90DF914F
S1130550CF911F910F91FF90EF90DF90CF90BF90BC
S1130560AF900895EF92FF920F931F93CF93DF9371
S11305707C018B010E940E0180EC0E94C400C70123
S11305800E94710187EC0E94C400C8010E9471019D
S113059080E80E94C4008FE291E00E94710189E822
S11305A00E94C40087E391E00E9471010E942D0221
S11305B0EC01892B51F40EC08C2F9D2F0BC08D3272
S11305C021F4B801C7010E94B2020E947E018B325D
S11305D0B1F7F2CFDF91CF911F910F91FF90EF9080
S11305E0089587B1887F87B908959C01E1E8F0E018
S11305F0908193609083E1EBF0E09081936090832D
S113060021303105A1F02230310501F1232B41F5D0
S1130610E0E8F0E080818968808384B1826084B9F5
S1130620862F972F90938900809388000895E0E89F
S1130630F0E080818962808384B1846084B9862FEC
S1130640972F90938B0080938A000895E0EBF0E05D
S113065080818368808384B1886084B96093B300A7
S113066008950F931F93CF93DF93C0E0D0E021C090
S11306708E010F5F1F4F980118C0DE01AA0FBB1F28
S1130680A80FB91F4D915C911197F901EE0FFF1F4F
S1130690E80FF91F608171816417750724F46D9365
S11306A07C93518340832F5F3F4F263031052CF3D9
S11306B0E801C630D105E4F2DF91CF911F910F918B
S11306C008950F931F93FC01681B790B041B150BF2
S11306D0609FC001619F900D709F900D1124B9011E
S11306E0641B750B0E942A07CF01860F971F1F9169
S11306F00F91089520E030E010C0F901EE0FFF1FC4
S1130700E80FF91F0190F081E02DE417F50719F4C3
S1130710822F932F08952F5F3F4F621773076CF753
S11307200895141615064CF4FB0120813181281715
S1130730390721F080E090E00895089581E090E089
S113074008956F927F928F929F92AF92BF92CF92B1
S1130750DF92EF92FF920F931F93CF93DF93CDB766
S1130760DEB72C970FB6F894DEBF0FBECDBF7C0169
S11307705B018A0145E050E0BC01C8010E9491037D
S1130780892BB1F420E030E02BC09C01220F331FF1
S1130790F701E20FF31F408151810417150731F46B
S11307A0F501E20FF31F808191815EC0019602C0C2
S11307B080E090E08530910544F356C0C901880F6C
S11307C0991FF701E80FF91F40815181E1E0F0E042
S11307D0EC0FFD1FE80FF91F518340832F5F3F4F3C
S11307E0253031055CF31C870B87CE0101960E94EE
S11307F03103A80166E070E0CE0101960E947A03FD
S1130800FC013197EE0FFF1F21E030E02C0F3D1F5C
S1130810E20FF31F80809180FC013196EE0FFF1FE1
S1130820E20FF31F60807180A40165E070E0C701EE
S11308300E947A036C01A30165E070E0C7010E9485
S11308407A03CC0CDD1CF501EC0DFD1D880F991FFE
S1130850D501A80FB91F6D917C919301A4018081EA
S113086091810E94610300C02C960FB6F894DEBFFC
S11308700FBECDBFDF91CF911F910F91FF90EF90ED
S1130880DF90CF90BF90AF909F908F907F906F90AC
S1130890089520E030E040E050E00BC0F901EE0F95
S11308A0FF1FE80FF91F60817181460F571F2F5FEB
S11308B03F4F2230310590F3CA01969587950895EC
S11308C01F93CF93DF93182FC0E0D0E008C0812F8F
S11308D00E94180289E190E00E946E002196CA30BD
S11308E0D105ACF380E090E0DF91CF911F910895A2
S11308F0CF93DF93CDB7DEB7E3970FB6F894DEBF9F
S11309000FBECDBF0E9453000E945C0080E70E948E
S113091064000E940E0180E80E94C4008FE391E00D
S11309200E94710188E80E94C40086E491E00E945C
S1130930710185EC0E94C4008DE491E00E94710174
S113094087E087B90E9411020E947E01B82E21E33C
S11309508213BEC00E94F10264E571E087E591E074
S11309600E94B2029093E2018093E101892B09F481
S1130970AFC06DE571E087E591E00E94B20280931B
S1130980E301882309F4A4C060E671E087E591E0FF
S11309900E94B2028093D301882309F499C064E5CC
S11309A071E083E691E00E94B2028093E60188231D
S11309B009F48EC06DE571E083E691E00E94B20215
S11309C08093E701882309F483C060E671E083E63D
S11309D091E00E94B2028093E801882309F478C070
S11309E064E571E089E691E00E94B2028093DF0140
S11309F0882309F46DC06DE571E089E691E00E94F9
S1130A00B2028093DA01882309F462C060E671E0DF
S1130A1089E691E00E94B2028093D601882309F40A
S1130A2057C064E571E08DE691E00E94B2028093C4
S1130A30E401882309F44CC06DE571E08DE691E092
S1130A400E94B2028093D201882309F441C060E677
S1130A5071E08DE691E00E94B2028093E501882363
S1130A60B9F164E571E083E791E00E94B2028093FA
S1130A70D101882369F16DE571E083E791E00E947B
S1130A80B2028093DD01882319F160E671E083E707
S1130A9091E00E94B2028093E0010E940E0182E87C
S1130AA00E94C40088E791E00E94710186EC0E94D4
S1130AB0C40084E891E00E9471018FEF93ED20E37C
S1130AC0815090402040E1F700C000000E9478046B
S1130AD082E3B8123FC10E94F1020E940E0120C1BC
S1130AE08AE0E1E1F1E0DE01529601900D928A95EF
S1130AF0E1F78091E1019091E2010E9452079A830B
S1130B0089838091E60190E00E9452079C838B8345
S1130B108091DF0190E00E9452079E838D83809133
S1130B20E40190E00E94520798878F838091D1015D
S1130B3090E00E9452079A878987A501BE016E5EE4
S1130B407F4FCE0101960E94A1038C0198B181E0F0
S1130B50892788B998B182E0892788B99FEF29E667
S1130B6088E1915020408040E1F700C0000080916E
S1130B70000190E00E9460040E9449045C0180919D
S1130B80D0018823A9F18AE0EBE1F1E0DE0152967D
S1130B9001900D928A95E1F78091E30190E00E9423
S1130BA052079A8389838091E70190E00E9452075B
S1130BB09C838B838091DA0190E00E9452079E838C
S1130BC08D838091D20190E00E94520798878F8391
S1130BD08091DD0190E00E9452079A878987A501E0
S1130BE0BE016E5E7F4FCE0101960E94A1036C018F
S1130BF098B182E0892788B998B184E0892788B9B7
S1130C009FEF29E688E1915020408040E1F700C041
S1130C1000008091000190E00E9460040E94490459
S1130C205C018091D0018823A9F18AE0E5E2F1E03A
S1130C30DE01529601900D928A95E1F78091D301DD
S1130C4090E00E9452079A8389838091E80190E0A2
S1130C500E9452079C838B838091D60190E00E946E
S1130C6052079E838D838091E50190E00E94520794
S1130C7098878F838091E00190E00E9452079A87C1
S1130C808987A501BE016E5E7F4FCE0101960E9449
S1130C90A1037C0198B184E0892788B980E80E9487
S1130CA0C4004AE050E0BE016D5D7F4FC8010E9460
S1130CB071088AE891E00E94710183E80E94C400EF
S1130CC0CE0183960E9471014AE050E0BE016E5E3F
S1130CD07F4FC6010E94710888E80E94C4008DE815
S1130CE091E00E9471018BE80E94C400CE014296FB
S1130CF00E9471014AE050E0BE016F5F7F4FC7015F
S1130D000E94710886EC0E94C40080E991E00E9470
S1130D1071018AEC0E94C400CE0101960E94710107
S1130D2098B181E0892788B99FEF29E688E191503D
S1130D3020408040E1F700C000008091000190E075
S1130D400E9460040E9449045C018091D0018111D9
S1130D50C7CEFCCE93E3B912F7CD0E94F1020E94F4
S1130D600E0180E80E94C40083E991E00E947101B1
S1130D702FEF83EC99E0215080409040E1F700C0D0
S1130D8000000E940E0180E80E94C40083EA91E002
S1130D900E9471010E9465026C012FEF81EE94E0C4
S1130DA0215080409040E1F700C000000E940E01F5
S1130DB080E80E94C40083EB91E00E94710180EC02
S1130DC00E94C4008DEA91E00E9471010E946502B4
S1130DD07C012FEF81EE94E0215080409040E1F7B8
S1130DE000C000000E940E0180E80E94C4008FEB46
S1130DF091E00E9471010E9465028C01B60180E0BD
S1130E0090E00E94F502B70181E090E00E94F502B3
S1130E10B80182E090E00E94F5022FEF83ED90E3A9
S1130E20215080409040E1F700C0000060E070E095
S1130E3080E090E00E94F50260E070E081E090E0E4
S1130E400E94F50260E070E082E090E00E94F5020A
S1130E500E94780497FB072E16F4009407D077FDC0
S1130E6009D00E943E0707FC05D03EF49095819579
S1130E709F4F0895709561957F4F0895AA1BBB1BE2
S1130E8051E107C0AA1FBB1FA617B70710F0A61B86
S1130E90B70B881F991F5A95A9F780959095BC01A7
S1130EA0CD010895A0E0B0E0E8E5F7E00C94E70890
S1130EB05C016B017A016115710519F0FB019183E5
S1130EC08083E114F10429F0C7010297839708F0A5
S1130ED0E5C0E5012196F5011081812F90E00E9483
S1130EE06808892B11F05E01F4CF1D3229F4219694
S1130EF0F501118101E007C01B3221F4E5012296BE
S1130F00F501118100E0E114F10409F1F0E1EF16BB
S1130F10F10429F43FC010E3E114F10421F128E0C5
S1130F20E216F10401F154F4E2E0EE16F10421F5C5
S1130F30812C912CA12CB0E4BB2E3EC0FAE0EF161C
S1130F40F10439F020E1E216F104B1F430C01033B9
S1130F5019F1FAE0EF2EF12CACEC8A2E982CA82C87
S1130F60ACE0BA2E29C078E0E72EF12C812C912C2C
S1130F70A12CE0E1BE2E20C060E070E080E090E8AB
S1130F8097010F2C000C440B550B0E94B908490122
S1130F905A0112C0103359F488818F7D883509F0C5
S1130FA0BACF19812296026080E1E82EF12C812CBF
S1130FB0912CA12C68E0B62E40E060E070E0CB01FB
S1130FC027010F2C000C66087708FE0150ED352E22
S1130FD0310E29E0231570F42FEB210F2A3118F478
S1130FE039EC332E06C02FE9210F2A3118F529EAEE
S1130FF0322E310E232D30E02E153F05DCF447FD53
S113100016C086169706A806B90670F0A3019201C9
S11310100E94A908630D711D811D911D6130710528
S1131020810520E8920710F04FEF01C041E02196BE
S11310301081CBCF202F2170C114D10471F044232F
S113104029F02197F601D183C08307C001FF19C09D
S11310502297F601D183C08314C047FF12C0222314
S113106029F060E070E080E090E804C06FEF7FEF6B
S11310708FEF9FE722E230E03093EA012093E90109
S113108009C0222381F090958095709561957F4FDA
S11310908F4F9F4F462F372F282F12C040E030E04C
S11310A020E090E00DC097FFF5CF82E290E09093AE
S11310B0EA018093E9016FEF7FEF8FEF9FE7EACFBB
S11310C0642F732F822FCDB7DEB7E1E10C940309AF
S11310D091110C949608803219F089508550C8F704
S11310E008954532510520F4423010F00C947C08E8
S11310F0FB011082CB010895BB27FB015527AA27CA
S1131100880F991FAA1FA41710F0A41B8395505190
S1131110B9F7A05DAA3308F0A95DA193009779F708
S1131120B111B1931192CB010C9499089927882796
S11311300895DC01FC01672F71917723E1F7329761
S113114004C07C916D9370836291AE17BF07C8F39E
S11311500895DB018F939F930E94DB08BF91AF91A9
S1131160A29F800D911DA39F900DB29F900D1124FD
S11311700895A1E21A2EAA1BBB1BFD010DC0AA1FD4
S1131180BB1FEE1FFF1FA217B307E407F50720F0EC
S1131190A21BB30BE40BF50B661F771F881F991F67
S11311A01A9469F760957095809590959B01AC01B0
S11311B0BD01CF0108950E941D09A59F900DB49F04
S11311C0900DA49F800D911D112408952F923F929C
S11311D04F925F926F927F928F929F92AF92BF9243
S11311E0CF92DF92EF92FF920F931F93CF93DF93EF
S11311F0CDB7DEB7CA1BDB0B0FB6F894DEBF0FBE4C
S1131200CDBF09942A88398848885F846E847D8498
S11312108C849B84AA84B984C884DF80EE80FD809A
S11312200C811B81AA81B981CE0FD11D0FB6F89410
S1131230DEBF0FBECDBFED010895A29FB001B39FE5
S1131240C001A39F700D811D1124911DB29F700DCB
S10F1250811D1124911D0895F894FFCF16
S113125C0320303D2B3132332D3435362A3738398F
S113126C2F0000FF00EB00460032000000FF0009D5
S113127C00BA0096000000FF0009002800E8002DC9
S113128C20636C65617200456E746572202B006D71
S113129C6F64652031006D6F64652032006D6F647E
S11312AC65203300522D00426C61636B00472D00A6
S11312BC422D0057686974650052454400477265B5
S11312CC656E00426C75650043616C696272617491
S11312DC696F6E00446F6E652100523A00473A0004
S11312EC423A006D6F646520332073656C656374DA
S11312FC656400456E746572205245442076616CB9
S113130C756500456E74657220475245454E00451F
S113131C6E74657220424C55452076616C7565007F
S9030000FC
