:100000000C9434000C9451000C9451000C94510049
:100010000C9451000C9451000C9451000C9451001C
:100020000C9451000C9451000C9451000C9451000C
:100030000C9451000C9451000C9451000C945100FC
:100040000C9451000C9451000C9451000C945100EC
:100050000C9451000C9451000C9451000C945100DC
:100060000C9451000C94510011241FBECFEFD8E026
:10007000DEBFCDBF11E0A0E0B1E0EEE8FDE002C0E0
:1000800005900D92A63AB107D9F721E0A6EAB1E0B2
:1000900001C01D92A73BB207E1F70E9462030C94D6
:1000A000C5060C94000082E68093B80084E080933B
:1000B000BC001092B900089584EA8093BC0080913E
:1000C000BC008823E4F708958093BB0084E8809304
:1000D000BC008091BC008823E4F7089540E050E024
:1000E0000AC02F5F3F4F02C020E030E029373105C2
:1000F000C4F34F5F5F4F84179507B4F70895EBEB98
:10010000F0E080818260808384E88093BC008091ED
:10011000BC008823E4F781E090E00E946E00EBEBE6
:10012000F0E080818D7F808384E88093BC008091A3
:10013000BC008823E4F70895EBEBF0E090819E7F0C
:10014000908394E89093BC009091BC009923E4F7CD
:10015000EBEBF0E090819F70908394E89093BC006B
:100160009091BC009923E4F7EBEBF0E09081807F65
:10017000892B808384E88093BC008091BC00882315
:10018000E4F70E947F000895CF93C82FEBEBF0E0D7
:1001900080818E7F808384E88093BC008091BC0046
:1001A0008823E4F7EBEBF0E080818F70808384E8B4
:1001B0008093BC008091BC008823E4F7EBEBF0E077
:1001C00080819C2F907F892B808384E88093BC0062
:1001D0008091BC008823E4F70E947F00EBEBF0E005
:1001E00080818F70808384E88093BC008091BC0004
:1001F0008823E4F7EBEBF0E0208130E1C39FC001FE
:100200001124822B808384E88093BC008091BC0001
:100210008823E4F70E947F00CF91089580E30E9435
:100220009C0080E30E949C0080E20E949C0088E287
:100230000E94C4008CE00E94C40081E00E94C400BF
:1002400086E00E94C40080E80E94C4000895CF9315
:10025000C82FEBEBF0E080818160808384E880939D
:10026000BC008091BC008823E4F7EBEBF0E08081D8
:100270008F70808384E88093BC008091BC008823C9
:10028000E4F7EBEBF0E080819C2F907F892B80835B
:1002900084E88093BC008091BC008823E4F70E942E
:1002A0007F00EBEBF0E080818F70808384E88093A7
:1002B000BC008091BC008823E4F7EBEBF0E02081E8
:1002C00030E1C39FC0011124822B808384E8809396
:1002D000BC008091BC008823E4F70E947F00CF918E
:1002E0000895CF93DF93EC0103C021960E9427016C
:1002F00088818111FACFDF91CF91089580EF84B981
:100300008FEF85B985B18F7085B9000083B18F708B
:100310008093AB018F30B1F72FEF89EF90E0215040
:1003200080409040E1F700C0000083B18F7080935F
:10033000AB018F3089F32FEF83EF91E021508040A4
:100340009040E1F700C0000083B18F708093AB0153
:100350008F3011F38FEE85B9000083B18F708093D9
:10036000AB018F3019F01092AE0127C08FED85B927
:10037000000083B18F708093AB018F3021F081E05A
:100380008093AE011AC08FEB85B9000083B18F70E6
:100390008093AB018F3021F082E08093AE010DC0DD
:1003A0008FE785B9000083B18F708093AB018F30E8
:1003B00009F4A4CF83E08093AE018091AB018E302D
:1003C00059F4E091AE01F0E0EE0FFF1FEE0FFF1FBA
:1003D000EF5FFE4F808108958D3059F4E091AE01BA
:1003E000F0E0EE0FFF1FEE0FFF1FEF5FFE4F81816A
:1003F00008958B3059F4E091AE01F0E0EE0FFF1F4D
:10040000EE0FFF1FEF5FFE4F82810895E091AE0176
:10041000F0E0EE0FFF1FEE0FFF1FEF5FFE4F838137
:10042000089583E480937C0086E880937A000895A1
:100430008770ECE7F0E09081987F892B8083EAE772
:10044000F0E080818064808380917A0086FDFCCF1B
:1004500080917800909179000895CF92DF92EF9289
:10046000FF920F931F93CF93DF9300D000D0CDB7AF
:10047000DEB7E12CF12C17C00E947E01082F8823E3
:1004800091F089EC8E0D0E94C40010E01A8309835C
:100490001C821B82CE0101960E947101C00ED11EEA
:1004A0008FEFE81AF80A83E0E816F1042CF3C6018E
:1004B0000F900F900F900F90DF91CF911F910F91A0
:1004C000FF90EF90DF90CF900895EF92FF920F93FF
:1004D0001F93CF93DF937C018B010E940E0180EC70
:1004E0000E94C400C7010E94710187EC0E94C400F1
:1004F000C8010E94710180E80E94C40081E191E07E
:100500000E94710189E80E94C40089E191E00E9483
:1005100071010E942D02EC01892B51F40EC08C2F29
:100520009D2F0BC08D3221F4B801C7010E946502D6
:100530000E947E018B32B1F7F2CFDF91CF911F91F4
:100540000F91FF90EF90089587B1887F87B9089544
:100550008334F9F08434B9F1823409F04EC041306B
:10056000510559F424B181E090E002C0880F991F31
:100570006A95E2F7822B84B9089524B181E090E076
:1005800002C0880F991F6A95E2F78095822384B98B
:1005900008954130510559F427B181E090E002C03F
:1005A000880F991F6A95E2F7822B87B9089527B1C2
:1005B00081E090E002C0880F991F6A95E2F780956C
:1005C000822387B908954130510559F42AB181E059
:1005D00090E002C0880F991F6A95E2F7822B8AB9D2
:1005E00008952AB181E090E002C0880F991F6A95B2
:1005F000E2F7809582238AB908958FEF84B985B98F
:100600000895CF939C01C62F95B5936095BDE1EBFE
:10061000F0E090819360908321303105B9F01CF4B3
:10062000232B41F03CC022303105E1F0233031056D
:1006300041F135C084B5836884BD41E050E066E097
:1006400070E084E40E94A802C7BD29C084B583621B
:1006500084BD41E050E065E070E084E40E94A802BF
:10066000C8BD1DC0E0EBF0E080818368808341E07D
:1006700050E063E070E082E40E94A802C093B300FF
:100680000EC0E0EBF0E080818362808341E050E0C7
:1006900063E070E084E40E94A802C093B400CF91AC
:1006A0000895CF93DF9300D0CDB7DEB74AE050E096
:1006B000BE016F5F7F4F0E94EB040F900F90DF91A0
:1006C000CF910895CF93DF93CDB7DEB7E3970FB601
:1006D000F894DEBF0FBECDBF0E9453000E945C00A5
:1006E00080E70E9464000E940E0180E80E94C4001E
:1006F00081E291E00E94710188E80E94C40088E2D2
:1007000091E00E94710185EC0E94C4008FE291E0AB
:100710000E94710187E087B90E9411020E947E0148
:10072000182F813309F05DC00E94A40266E371E0D6
:1007300089E391E00E9465029093B0018093AF013C
:10074000892B09F44EC06DE371E089E391E00E94CA
:1007500065028093B101882309F443C060E471E02D
:1007600089E391E00E9465028093A6018823C9F184
:1007700066E371E083E491E00E9465028093B20138
:10078000882379F16DE371E083E491E00E946502D2
:100790008093B301882329F160E471E083E491E060
:1007A0000E9465028093B4018823D9F00E940E0153
:1007B00082E80E94C40087E491E00E94710186EC07
:1007C0000E94C40083E591E00E9471012FEF83ED48
:1007D00090E3215080409040E1F700C000000E946B
:1007E0006203123309F096C00E940E0188B111E035
:1007F000812788B92FEF89E698E121508040904009
:10080000E1F700C00000809100010E94180290935F
:10081000AD018093AC0188B1182718B988B112E0F6
:10082000812788B92FEF89E698E1215080409040D8
:10083000E1F700C00000809100010E94180290932F
:10084000A8018093A70188B1182718B988B114E0CE
:10085000812788B92FEF89E698E1215080409040A8
:10086000E1F700C00000809100010E9418029093FF
:10087000AA018093A90188B1182718B980E80E94BD
:10088000C4004AE050E0BE016D5D7F4F8091AC0135
:100890009091AD010E940A0689E591E00E947101E4
:1008A00083E80E94C400CE0183960E9471014AE051
:1008B00050E0BE016E5E7F4F8091A7019091A8012C
:1008C0000E940A0688E80E94C4008CE591E00E941C
:1008D00071018BE80E94C400CE0142960E94710112
:1008E0004AE050E0BE016F5F7F4F8091A901909177
:1008F000AA010E940A0686EC0E94C4008FE591E0DE
:100900000E9471018AEC0E94C400CE0101960E94EF
:1009100071016CCF133309F001CF0E940E0181E801
:100920000E94C40082E691E00E9471012FEF83EDE6
:1009300090E3215080409040E1F700C000000E9409
:100940000E0181E80E94C40082E791E00E947101DB
:100950000E942D020E9451036C012FEF83ED90E362
:10096000215080409040E1F700C000000E940E013D
:1009700081E80E94C40082E891E00E9471010E9417
:100980002D020E9451037C012FEF83ED90E3215053
:1009900080409040E1F700C000000E940E0181E815
:1009A0000E94C40084E991E00E9471010E942D021E
:1009B0000E9451038C01B60180E090E00E94010387
:1009C000B70181E090E00E940103B80183E090E06C
:1009D0000E940103A3CEA0E0B0E0E1EFF4E00C94AC
:1009E00080065C016B017A016115710519F0FB014C
:1009F00091838083E114F10429F0C7010297839762
:100A000008F0E5C0E5012196F5011081812F90E005
:100A10000E940106892B11F05E01F4CF1D3229F4EA
:100A20002196F501118101E007C01B3221F4E50197
:100A30002296F501118100E0E114F10409F1F0E1E1
:100A4000EF16F10429F43FC010E3E114F10421F1A1
:100A500028E0E216F10401F154F4E2E0EE16F104AC
:100A600021F5812C912CA12CB0E4BB2E3EC0FAE0E4
:100A7000EF16F10439F020E1E216F104B1F430C0D0
:100A8000103319F1FAE0EF2EF12CACEC8A2E982CF1
:100A9000A82CACE0BA2E29C078E0E72EF12C812CEE
:100AA000912CA12CE0E1BE2E20C060E070E080E03F
:100AB00090E897010F2C000C440B550B0E94520636
:100AC00049015A0112C0103359F488818F7D88354D
:100AD00009F0BACF19812296026080E1E82EF12C4C
:100AE000812C912CA12C68E0B62E40E060E070E0F3
:100AF000CB0127010F2C000C66087708FE0150ED92
:100B0000352E310E29E0231570F42FEB210F2A31F9
:100B100018F439EC332E06C02FE9210F2A3118F5CD
:100B200029EA322E310E232D30E02E153F05DCF45C
:100B300047FD16C086169706A806B90670F0A301F1
:100B400092010E944206630D711D811D911D61304D
:100B50007105810520E8920710F04FEF01C041E0D8
:100B600021961081CBCF202F2170C114D10471F0B8
:100B7000442329F02197F601D183C08307C001FFE8
:100B800019C02297F601D183C08314C047FF12C059
:100B9000222329F060E070E080E090E804C06FEF6D
:100BA0007FEF8FEF9FE722E230E03093B601209392
:100BB000B50109C0222381F09095809570956195CB
:100BC0007F4F8F4F9F4F462F372F282F12C040E067
:100BD00030E020E090E00DC097FFF5CF82E290E09A
:100BE0009093B6018093B5016FEF7FEF8FEF9FE792
:100BF000EACF642F732F822FCDB7DEB7E1E10C94DB
:100C00009C0691110C942F06803219F08950855062
:100C1000C8F708954532510520F4423010F00C9485
:100C20001506FB011082CB010895BB27FB01552758
:100C3000AA27880F991FAA1FA41710F0A41B839539
:100C40005051B9F7A05DAA3308F0A95DA1930097B0
:100C500079F7B111B1931192CB010C943206992717
:100C600088270895DC01FC01672F71917723E1F754
:100C7000329704C07C916D9370836291AE17BF0769
:100C8000C8F30895DB018F939F930E947406BF9170
:100C9000AF91A29F800D911DA39F900DB29F900DCB
:100CA00011240895A1E21A2EAA1BBB1BFD010DC041
:100CB000AA1FBB1FEE1FFF1FA217B307E407F5070C
:100CC00020F0A21BB30BE40BF50B661F771F881FE8
:100CD000991F1A9469F760957095809590959B017E
:100CE000AC01BD01CF0108950E94B606A59F900DED
:100CF000B49F900DA49F800D911D112408952F92F3
:100D00003F924F925F926F927F928F929F92AF929B
:100D1000BF92CF92DF92EF92FF920F931F93CF93E8
:100D2000DF93CDB7DEB7CA1BDB0B0FB6F894DEBF7F
:100D30000FBECDBF09942A88398848885F846E84A5
:100D40007D848C849B84AA84B984C884DF80EE80EF
:100D5000FD800C811B81AA81B981CE0FD11D0FB6F8
:100D6000F894DEBF0FBECDBFED010895A29FB00184
:100D7000B39FC001A39F700D811D1124911DB29FCF
:0E0D8000700D811D1124911D0895F894FFCF70
:100D8E000320303D2B3132332D3435362A37383966
:100D9E002F2D20636C65617200456E746572202B79
:100DAE00006D6F64652031006D6F64652032006DDB
:100DBE006F6465203300522D004D696E00472D0083
:100DCE00422D004D61780043616C696272617469F5
:100DDE006F6E00446F6E652100523A00473A004232
:100DEE003A006D6F646520332073656C65637465BE
:100DFE006400456E746572205245442076616C75B0
:100E0E006500456E74657220475245454E207661E9
:100E1E006C756500456E74657220424C55452076A2
:060E2E00616C7565000017
:00000001FF
